{"abi":[{"type":"function","name":"MINIMUM_STAKE","inputs":[],"outputs":[{"name":"","type":"uint256","internalType":"uint256"}],"stateMutability":"view"},{"type":"function","name":"completeTask","inputs":[{"name":"_id","type":"uint256","internalType":"uint256"}],"outputs":[],"stateMutability":"nonpayable"},{"type":"function","name":"completedCount","inputs":[],"outputs":[{"name":"","type":"uint256","internalType":"uint256"}],"stateMutability":"view"},{"type":"function","name":"createTask","inputs":[{"name":"_title","type":"string","internalType":"string"},{"name":"_description","type":"string","internalType":"string"},{"name":"_deadline","type":"uint256","internalType":"uint256"}],"outputs":[],"stateMutability":"payable"},{"type":"function","name":"getContractBalance","inputs":[],"outputs":[{"name":"","type":"uint256","internalType":"uint256"}],"stateMutability":"view"},{"type":"function","name":"getTask","inputs":[{"name":"_id","type":"uint256","internalType":"uint256"}],"outputs":[{"name":"","type":"tuple","internalType":"struct TaskManager.Task","components":[{"name":"id","type":"uint256","internalType":"uint256"},{"name":"title","type":"string","internalType":"string"},{"name":"description","type":"string","internalType":"string"},{"name":"createdAt","type":"uint256","internalType":"uint256"},{"name":"deadline","type":"uint256","internalType":"uint256"},{"name":"status","type":"bool","internalType":"bool"},{"name":"creator","type":"address","internalType":"address"},{"name":"stakeAmount","type":"uint256","internalType":"uint256"},{"name":"stakeReturned","type":"bool","internalType":"bool"}]}],"stateMutability":"view"},{"type":"function","name":"getTaskCount","inputs":[],"outputs":[{"name":"","type":"uint256","internalType":"uint256"}],"stateMutability":"view"},{"type":"function","name":"getTaskRetunnedAmount","inputs":[],"outputs":[{"name":"returnedAmount","type":"uint256","internalType":"uint256"},{"name":"pendingAmount","type":"uint256","internalType":"uint256"}],"stateMutability":"view"},{"type":"function","name":"getTaskStatusCount","inputs":[],"outputs":[{"name":"completed","type":"uint256","internalType":"uint256"},{"name":"pending","type":"uint256","internalType":"uint256"}],"stateMutability":"view"},{"type":"function","name":"getUserTasks","inputs":[{"name":"_user","type":"address","internalType":"address"}],"outputs":[{"name":"","type":"uint256[]","internalType":"uint256[]"}],"stateMutability":"view"},{"type":"function","name":"isTaskOverdue","inputs":[{"name":"_id","type":"uint256","internalType":"uint256"}],"outputs":[{"name":"","type":"bool","internalType":"bool"}],"stateMutability":"view"},{"type":"function","name":"pendingAmount","inputs":[],"outputs":[{"name":"","type":"uint256","internalType":"uint256"}],"stateMutability":"view"},{"type":"function","name":"pendingCount","inputs":[],"outputs":[{"name":"","type":"uint256","internalType":"uint256"}],"stateMutability":"view"},{"type":"function","name":"returnedAmount","inputs":[],"outputs":[{"name":"","type":"uint256","internalType":"uint256"}],"stateMutability":"view"},{"type":"function","name":"taskCount","inputs":[],"outputs":[{"name":"","type":"uint256","internalType":"uint256"}],"stateMutability":"view"},{"type":"function","name":"tasks","inputs":[{"name":"","type":"uint256","internalType":"uint256"}],"outputs":[{"name":"id","type":"uint256","internalType":"uint256"},{"name":"title","type":"string","internalType":"string"},{"name":"description","type":"string","internalType":"string"},{"name":"createdAt","type":"uint256","internalType":"uint256"},{"name":"deadline","type":"uint256","internalType":"uint256"},{"name":"status","type":"bool","internalType":"bool"},{"name":"creator","type":"address","internalType":"address"},{"name":"stakeAmount","type":"uint256","internalType":"uint256"},{"name":"stakeReturned","type":"bool","internalType":"bool"}],"stateMutability":"view"},{"type":"function","name":"userTasks","inputs":[{"name":"","type":"address","internalType":"address"},{"name":"","type":"uint256","internalType":"uint256"}],"outputs":[{"name":"","type":"uint256","internalType":"uint256"}],"stateMutability":"view"},{"type":"event","name":"StakeLost","inputs":[{"name":"id","type":"uint256","indexed":false,"internalType":"uint256"},{"name":"stakeAmount","type":"uint256","indexed":false,"internalType":"uint256"}],"anonymous":false},{"type":"event","name":"TaskCompleted","inputs":[{"name":"id","type":"uint256","indexed":false,"internalType":"uint256"},{"name":"stakeReturned","type":"uint256","indexed":false,"internalType":"uint256"}],"anonymous":false},{"type":"event","name":"TaskCreated","inputs":[{"name":"id","type":"uint256","indexed":false,"internalType":"uint256"},{"name":"title","type":"string","indexed":false,"internalType":"string"},{"name":"creator","type":"address","indexed":false,"internalType":"address"},{"name":"stakeAmount","type":"uint256","indexed":false,"internalType":"uint256"},{"name":"deadline","type":"uint256","indexed":false,"internalType":"uint256"}],"anonymous":false},{"type":"event","name":"TaskStakeUpdated","inputs":[{"name":"returnedAmount","type":"uint256","indexed":false,"internalType":"uint256"},{"name":"pendingAmount","type":"uint256","indexed":false,"internalType":"uint256"}],"anonymous":false},{"type":"event","name":"TaskStatusUpdated","inputs":[{"name":"completedCount","type":"uint256","indexed":false,"internalType":"uint256"},{"name":"pendingCount","type":"uint256","indexed":false,"internalType":"uint256"}],"anonymous":false}],"bytecode":{"object":"0x60806040525f6002555f6003555f6004555f6005555f6006553480156022575f5ffd5b50611f6a806100305f395ff3fe6080604052600436106100fd575f3560e01c806395d5766011610094578063ba1066ed11610063578063ba1066ed1461034f578063c17a340e14610379578063e1e29558146103a3578063ea70b4af146103cb578063ebdd3c9c146103f5576100fd565b806395d5766014610283578063ab7e91fe146102bf578063b3c9e0fa146102fb578063b6cb58a514610325576100fd565b806366873a55116100d057806366873a55146101ae5780636f9fb98a146101ea5780637c349e67146102145780638d9776721461023f576100fd565b806308dbbb03146101015780631d65e77e1461012b5780633f074db61461016757806341a4e30a14610192575b5f5ffd5b34801561010c575f5ffd5b5061011561041f565b6040516101229190611170565b60405180910390f35b348015610136575f5ffd5b50610151600480360381019061014c91906111c4565b61042a565b60405161015e9190611390565b60405180910390f35b348015610172575f5ffd5b5061017b610626565b6040516101899291906113b0565b60405180910390f35b6101ac60048036038101906101a79190611503565b610636565b005b3480156101b9575f5ffd5b506101d460048036038101906101cf91906115b5565b6108f6565b6040516101e19190611170565b60405180910390f35b3480156101f5575f5ffd5b506101fe610921565b60405161020b9190611170565b60405180910390f35b34801561021f575f5ffd5b50610228610928565b6040516102369291906113b0565b60405180910390f35b34801561024a575f5ffd5b50610265600480360381019061026091906111c4565b61092e565b60405161027a99989796959493929190611659565b60405180910390f35b34801561028e575f5ffd5b506102a960048036038101906102a491906116f2565b610abb565b6040516102b691906117c5565b60405180910390f35b3480156102ca575f5ffd5b506102e560048036038101906102e091906111c4565b610b4e565b6040516102f291906117e5565b60405180910390f35b348015610306575f5ffd5b5061030f610d5c565b60405161031c9190611170565b60405180910390f35b348015610330575f5ffd5b50610339610d62565b6040516103469190611170565b60405180910390f35b34801561035a575f5ffd5b50610363610d68565b6040516103709190611170565b60405180910390f35b348015610384575f5ffd5b5061038d610d6e565b60405161039a9190611170565b60405180910390f35b3480156103ae575f5ffd5b506103c960048036038101906103c491906111c4565b610d77565b005b3480156103d6575f5ffd5b506103df6110ed565b6040516103ec9190611170565b60405180910390f35b348015610400575f5ffd5b506104096110f3565b6040516104169190611170565b60405180910390f35b66038d7ea4c6800081565b6104326110f9565b5f5f8381526020019081526020015f20604051806101200160405290815f82015481526020016001820180546104679061182b565b80601f01602080910402602001604051908101604052809291908181526020018280546104939061182b565b80156104de5780601f106104b5576101008083540402835291602001916104de565b820191905f5260205f20905b8154815290600101906020018083116104c157829003601f168201915b505050505081526020016002820180546104f79061182b565b80601f01602080910402602001604051908101604052809291908181526020018280546105239061182b565b801561056e5780601f106105455761010080835404028352916020019161056e565b820191905f5260205f20905b81548152906001019060200180831161055157829003601f168201915b505050505081526020016003820154815260200160048201548152602001600582015f9054906101000a900460ff161515151581526020016005820160019054906101000a900473ffffffffffffffffffffffffffffffffffffffff1673ffffffffffffffffffffffffffffffffffffffff1673ffffffffffffffffffffffffffffffffffffffff16815260200160068201548152602001600782015f9054906101000a900460ff1615151515815250509050919050565b5f5f600354600454915091509091565b66038d7ea4c68000341015610680576040517f08c379a0000000000000000000000000000000000000000000000000000000008152600401610677906118a5565b60405180910390fd5b4281116106c2576040517f08c379a00000000000000000000000000000000000000000000000000000000081526004016106b99061190d565b60405180910390fd5b60025f8154809291906106d490611958565b919050555060405180610120016040528060025481526020018481526020018381526020014281526020018281526020015f151581526020013373ffffffffffffffffffffffffffffffffffffffff1681526020013481526020015f15158152505f5f60025481526020019081526020015f205f820151815f015560208201518160010190816107649190611b3f565b50604082015181600201908161077a9190611b3f565b50606082015181600301556080820151816004015560a0820151816005015f6101000a81548160ff02191690831515021790555060c08201518160050160016101000a81548173ffffffffffffffffffffffffffffffffffffffff021916908373ffffffffffffffffffffffffffffffffffffffff16021790555060e08201518160060155610100820151816007015f6101000a81548160ff02191690831515021790555090505060045f81548092919061083490611958565b9190505550346005546108479190611c0e565b60058190555060015f3373ffffffffffffffffffffffffffffffffffffffff1673ffffffffffffffffffffffffffffffffffffffff1681526020019081526020015f20600254908060018154018082558091505060019003905f5260205f20015f90919091909150557f9eb5948b45d622ef560d2b8183be43f949b64ad8edb994e97673441b3c0690cc600254843334856040516108e9959493929190611c41565b60405180910390a1505050565b6001602052815f5260405f20818154811061090f575f80fd5b905f5260205f20015f91509150505481565b5f47905090565b5f5f9091565b5f602052805f5260405f205f91509050805f0154908060010180546109529061182b565b80601f016020809104026020016040519081016040528092919081815260200182805461097e9061182b565b80156109c95780601f106109a0576101008083540402835291602001916109c9565b820191905f5260205f20905b8154815290600101906020018083116109ac57829003601f168201915b5050505050908060020180546109de9061182b565b80601f0160208091040260200160405190810160405280929190818152602001828054610a0a9061182b565b8015610a555780601f10610a2c57610100808354040283529160200191610a55565b820191905f5260205f20905b815481529060010190602001808311610a3857829003601f168201915b505050505090806003015490806004015490806005015f9054906101000a900460ff16908060050160019054906101000a900473ffffffffffffffffffffffffffffffffffffffff1690806006015490806007015f9054906101000a900460ff16905089565b606060015f8373ffffffffffffffffffffffffffffffffffffffff1673ffffffffffffffffffffffffffffffffffffffff1681526020019081526020015f20805480602002602001604051908101604052809291908181526020018280548015610b4257602002820191905f5260205f20905b815481526020019060010190808311610b2e575b50505050509050919050565b5f5f5f5f8481526020019081526020015f20604051806101200160405290815f8201548152602001600182018054610b859061182b565b80601f0160208091040260200160405190810160405280929190818152602001828054610bb19061182b565b8015610bfc5780601f10610bd357610100808354040283529160200191610bfc565b820191905f5260205f20905b815481529060010190602001808311610bdf57829003601f168201915b50505050508152602001600282018054610c159061182b565b80601f0160208091040260200160405190810160405280929190818152602001828054610c419061182b565b8015610c8c5780601f10610c6357610100808354040283529160200191610c8c565b820191905f5260205f20905b815481529060010190602001808311610c6f57829003601f168201915b505050505081526020016003820154815260200160048201548152602001600582015f9054906101000a900460ff161515151581526020016005820160019054906101000a900473ffffffffffffffffffffffffffffffffffffffff1673ffffffffffffffffffffffffffffffffffffffff1673ffffffffffffffffffffffffffffffffffffffff16815260200160068201548152602001600782015f9054906101000a900460ff16151515158152505090508060a00151158015610d545750806080015142115b915050919050565b60035481565b60025481565b60055481565b5f600254905090565b5f5f5f8381526020019081526020015f2090503373ffffffffffffffffffffffffffffffffffffffff168160050160019054906101000a900473ffffffffffffffffffffffffffffffffffffffff1673ffffffffffffffffffffffffffffffffffffffff1614610e1c576040517f08c379a0000000000000000000000000000000000000000000000000000000008152600401610e1390611ce3565b60405180910390fd5b806005015f9054906101000a900460ff1615610e6d576040517f08c379a0000000000000000000000000000000000000000000000000000000008152600401610e6490611d4b565b60405180910390fd5b806007015f9054906101000a900460ff1615610ebe576040517f08c379a0000000000000000000000000000000000000000000000000000000008152600401610eb590611db3565b60405180910390fd5b6001816005015f6101000a81548160ff0219169083151502179055506001816007015f6101000a81548160ff02191690831515021790555080600401544211611072575f8160050160019054906101000a900473ffffffffffffffffffffffffffffffffffffffff1673ffffffffffffffffffffffffffffffffffffffff168260060154604051610f4e90611dfe565b5f6040518083038185875af1925050503d805f8114610f88576040519150601f19603f3d011682016040523d82523d5f602084013e610f8d565b606091505b5050905080610fd1576040517f08c379a0000000000000000000000000000000000000000000000000000000008152600401610fc890611e5c565b60405180910390fd5b60035f815480929190610fe390611958565b919050555060045f815480929190610ffa90611e7a565b919050555081600601546006546110119190611c0e565b60068190555081600601546005546110299190611ea1565b6005819055507ff9c405f91e34dcd1dc136cf6992ada4a8c24a2803e0fab7546364c64dac7ba2b8383600601546040516110649291906113b0565b60405180910390a1506110e9565b7ff9c405f91e34dcd1dc136cf6992ada4a8c24a2803e0fab7546364c64dac7ba2b825f6040516110a3929190611f0d565b60405180910390a17fa9898ba252935fecb197d0a78b42a99811306bb4e657863c322889be3ffbcd1c8282600601546040516110e09291906113b0565b60405180910390a15b5050565b60045481565b60065481565b6040518061012001604052805f815260200160608152602001606081526020015f81526020015f81526020015f151581526020015f73ffffffffffffffffffffffffffffffffffffffff1681526020015f81526020015f151581525090565b5f819050919050565b61116a81611158565b82525050565b5f6020820190506111835f830184611161565b92915050565b5f604051905090565b5f5ffd5b5f5ffd5b6111a381611158565b81146111ad575f5ffd5b50565b5f813590506111be8161119a565b92915050565b5f602082840312156111d9576111d8611192565b5b5f6111e6848285016111b0565b91505092915050565b6111f881611158565b82525050565b5f81519050919050565b5f82825260208201905092915050565b8281835e5f83830152505050565b5f601f19601f8301169050919050565b5f611240826111fe565b61124a8185611208565b935061125a818560208601611218565b61126381611226565b840191505092915050565b5f8115159050919050565b6112828161126e565b82525050565b5f73ffffffffffffffffffffffffffffffffffffffff82169050919050565b5f6112b182611288565b9050919050565b6112c1816112a7565b82525050565b5f61012083015f8301516112dd5f8601826111ef565b50602083015184820360208601526112f58282611236565b9150506040830151848203604086015261130f8282611236565b915050606083015161132460608601826111ef565b50608083015161133760808601826111ef565b5060a083015161134a60a0860182611279565b5060c083015161135d60c08601826112b8565b5060e083015161137060e08601826111ef565b50610100830151611385610100860182611279565b508091505092915050565b5f6020820190508181035f8301526113a881846112c7565b905092915050565b5f6040820190506113c35f830185611161565b6113d06020830184611161565b9392505050565b5f5ffd5b5f5ffd5b7f4e487b71000000000000000000000000000000000000000000000000000000005f52604160045260245ffd5b61141582611226565b810181811067ffffffffffffffff82111715611434576114336113df565b5b80604052505050565b5f611446611189565b9050611452828261140c565b919050565b5f67ffffffffffffffff821115611471576114706113df565b5b61147a82611226565b9050602081019050919050565b828183375f83830152505050565b5f6114a76114a284611457565b61143d565b9050828152602081018484840111156114c3576114c26113db565b5b6114ce848285611487565b509392505050565b5f82601f8301126114ea576114e96113d7565b5b81356114fa848260208601611495565b91505092915050565b5f5f5f6060848603121561151a57611519611192565b5b5f84013567ffffffffffffffff81111561153757611536611196565b5b611543868287016114d6565b935050602084013567ffffffffffffffff81111561156457611563611196565b5b611570868287016114d6565b9250506040611581868287016111b0565b9150509250925092565b611594816112a7565b811461159e575f5ffd5b50565b5f813590506115af8161158b565b92915050565b5f5f604083850312156115cb576115ca611192565b5b5f6115d8858286016115a1565b92505060206115e9858286016111b0565b9150509250929050565b5f82825260208201905092915050565b5f61160d826111fe565b61161781856115f3565b9350611627818560208601611218565b61163081611226565b840191505092915050565b6116448161126e565b82525050565b611653816112a7565b82525050565b5f6101208201905061166d5f83018c611161565b818103602083015261167f818b611603565b90508181036040830152611693818a611603565b90506116a26060830189611161565b6116af6080830188611161565b6116bc60a083018761163b565b6116c960c083018661164a565b6116d660e0830185611161565b6116e461010083018461163b565b9a9950505050505050505050565b5f6020828403121561170757611706611192565b5b5f611714848285016115a1565b91505092915050565b5f81519050919050565b5f82825260208201905092915050565b5f819050602082019050919050565b5f61175183836111ef565b60208301905092915050565b5f602082019050919050565b5f6117738261171d565b61177d8185611727565b935061178883611737565b805f5b838110156117b857815161179f8882611746565b97506117aa8361175d565b92505060018101905061178b565b5085935050505092915050565b5f6020820190508181035f8301526117dd8184611769565b905092915050565b5f6020820190506117f85f83018461163b565b92915050565b7f4e487b71000000000000000000000000000000000000000000000000000000005f52602260045260245ffd5b5f600282049050600182168061184257607f821691505b602082108103611855576118546117fe565b5b50919050565b7f56616c6f72206d696e696d6f206520302e3030303030303031206574686572005f82015250565b5f61188f601f836115f3565b915061189a8261185b565b602082019050919050565b5f6020820190508181035f8301526118bc81611883565b9050919050565b7f5072617a6f206465766520736572206d61696f72207175652061676f726100005f82015250565b5f6118f7601e836115f3565b9150611902826118c3565b602082019050919050565b5f6020820190508181035f830152611924816118eb565b9050919050565b7f4e487b71000000000000000000000000000000000000000000000000000000005f52601160045260245ffd5b5f61196282611158565b91507fffffffffffffffffffffffffffffffffffffffffffffffffffffffffffffffff82036119945761199361192b565b5b600182019050919050565b5f819050815f5260205f209050919050565b5f6020601f8301049050919050565b5f82821b905092915050565b5f600883026119fb7fffffffffffffffffffffffffffffffffffffffffffffffffffffffffffffffff826119c0565b611a0586836119c0565b95508019841693508086168417925050509392505050565b5f819050919050565b5f611a40611a3b611a3684611158565b611a1d565b611158565b9050919050565b5f819050919050565b611a5983611a26565b611a6d611a6582611a47565b8484546119cc565b825550505050565b5f5f905090565b611a84611a75565b611a8f818484611a50565b505050565b5b81811015611ab257611aa75f82611a7c565b600181019050611a95565b5050565b601f821115611af757611ac88161199f565b611ad1846119b1565b81016020851015611ae0578190505b611af4611aec856119b1565b830182611a94565b50505b505050565b5f82821c905092915050565b5f611b175f1984600802611afc565b1980831691505092915050565b5f611b2f8383611b08565b9150826002028217905092915050565b611b48826111fe565b67ffffffffffffffff811115611b6157611b606113df565b5b611b6b825461182b565b611b76828285611ab6565b5f60209050601f831160018114611ba7575f8415611b95578287015190505b611b9f8582611b24565b865550611c06565b601f198416611bb58661199f565b5f5b82811015611bdc57848901518255600182019150602085019450602081019050611bb7565b86831015611bf95784890151611bf5601f891682611b08565b8355505b6001600288020188555050505b505050505050565b5f611c1882611158565b9150611c2383611158565b9250828201905080821115611c3b57611c3a61192b565b5b92915050565b5f60a082019050611c545f830188611161565b8181036020830152611c668187611603565b9050611c75604083018661164a565b611c826060830185611161565b611c8f6080830184611161565b9695505050505050565b7f4170656e6173206f2043726961646f7220706f646520636f6d706c65746172005f82015250565b5f611ccd601f836115f3565b9150611cd882611c99565b602082019050919050565b5f6020820190508181035f830152611cfa81611cc1565b9050919050565b7f546172656661206a6120636f6e636c75696461000000000000000000000000005f82015250565b5f611d356013836115f3565b9150611d4082611d01565b602082019050919050565b5f6020820190508181035f830152611d6281611d29565b9050919050565b7f5374616b65206a6120666f692070726f636573736461000000000000000000005f82015250565b5f611d9d6016836115f3565b9150611da882611d69565b602082019050919050565b5f6020820190508181035f830152611dca81611d91565b9050919050565b5f81905092915050565b50565b5f611de95f83611dd1565b9150611df482611ddb565b5f82019050919050565b5f611e0882611dde565b9150819050919050565b7f46616c686120616f206465766f6c766572207374616b650000000000000000005f82015250565b5f611e466017836115f3565b9150611e5182611e12565b602082019050919050565b5f6020820190508181035f830152611e7381611e3a565b9050919050565b5f611e8482611158565b91505f8203611e9657611e9561192b565b5b600182039050919050565b5f611eab82611158565b9150611eb683611158565b9250828203905081811115611ece57611ecd61192b565b5b92915050565b5f819050919050565b5f611ef7611ef2611eed84611ed4565b611a1d565b611158565b9050919050565b611f0781611edd565b82525050565b5f604082019050611f205f830185611161565b611f2d6020830184611efe565b939250505056fea2646970667358221220dcdee1847021f2e2b702f855f1aaf5a38c2b8b531d32609ba245dc00e1965be364736f6c634300081e0033","linkReferences":{}},"methodIdentifiers":{"MINIMUM_STAKE()":"08dbbb03","completeTask(uint256)":"e1e29558","completedCount()":"b3c9e0fa","createTask(string,string,uint256)":"41a4e30a","getContractBalance()":"6f9fb98a","getTask(uint256)":"1d65e77e","getTaskCount()":"c17a340e","getTaskRetunnedAmount()":"7c349e67","getTaskStatusCount()":"3f074db6","getUserTasks(address)":"95d57660","isTaskOverdue(uint256)":"ab7e91fe","pendingAmount()":"ba1066ed","pendingCount()":"ea70b4af","returnedAmount()":"ebdd3c9c","taskCount()":"b6cb58a5","tasks(uint256)":"8d977672","userTasks(address,uint256)":"66873a55"},"id":0}