{"abi":[{"type":"function","name":"MINIMUM_STAKE","inputs":[],"outputs":[{"name":"","type":"uint256","internalType":"uint256"}],"stateMutability":"view"},{"type":"function","name":"completeTask","inputs":[{"name":"_id","type":"uint256","internalType":"uint256"}],"outputs":[],"stateMutability":"nonpayable"},{"type":"function","name":"completedCount","inputs":[],"outputs":[{"name":"","type":"uint256","internalType":"uint256"}],"stateMutability":"view"},{"type":"function","name":"createTask","inputs":[{"name":"_title","type":"string","internalType":"string"},{"name":"_description","type":"string","internalType":"string"},{"name":"_deadline","type":"uint256","internalType":"uint256"}],"outputs":[],"stateMutability":"payable"},{"type":"function","name":"getContractBalance","inputs":[],"outputs":[{"name":"","type":"uint256","internalType":"uint256"}],"stateMutability":"view"},{"type":"function","name":"getTask","inputs":[{"name":"_id","type":"uint256","internalType":"uint256"}],"outputs":[{"name":"","type":"tuple","internalType":"struct TaskManager.Task","components":[{"name":"id","type":"uint256","internalType":"uint256"},{"name":"title","type":"string","internalType":"string"},{"name":"description","type":"string","internalType":"string"},{"name":"createdAt","type":"uint256","internalType":"uint256"},{"name":"deadline","type":"uint256","internalType":"uint256"},{"name":"status","type":"bool","internalType":"bool"},{"name":"creator","type":"address","internalType":"address"},{"name":"stakeAmount","type":"uint256","internalType":"uint256"},{"name":"stakeReturned","type":"bool","internalType":"bool"}]}],"stateMutability":"view"},{"type":"function","name":"getTaskCount","inputs":[],"outputs":[{"name":"","type":"uint256","internalType":"uint256"}],"stateMutability":"view"},{"type":"function","name":"getTaskReturnedAmount","inputs":[],"outputs":[{"name":"returnedAmount","type":"uint256","internalType":"uint256"},{"name":"pendingAmount","type":"uint256","internalType":"uint256"}],"stateMutability":"view"},{"type":"function","name":"getTaskStatusCount","inputs":[],"outputs":[{"name":"completed","type":"uint256","internalType":"uint256"},{"name":"pending","type":"uint256","internalType":"uint256"}],"stateMutability":"view"},{"type":"function","name":"getUserTasks","inputs":[{"name":"_user","type":"address","internalType":"address"}],"outputs":[{"name":"","type":"uint256[]","internalType":"uint256[]"}],"stateMutability":"view"},{"type":"function","name":"isTaskOverdue","inputs":[{"name":"_id","type":"uint256","internalType":"uint256"}],"outputs":[{"name":"","type":"bool","internalType":"bool"}],"stateMutability":"view"},{"type":"function","name":"pendingAmount","inputs":[],"outputs":[{"name":"","type":"uint256","internalType":"uint256"}],"stateMutability":"view"},{"type":"function","name":"pendingCount","inputs":[],"outputs":[{"name":"","type":"uint256","internalType":"uint256"}],"stateMutability":"view"},{"type":"function","name":"returnedAmount","inputs":[],"outputs":[{"name":"","type":"uint256","internalType":"uint256"}],"stateMutability":"view"},{"type":"function","name":"taskCount","inputs":[],"outputs":[{"name":"","type":"uint256","internalType":"uint256"}],"stateMutability":"view"},{"type":"function","name":"tasks","inputs":[{"name":"","type":"uint256","internalType":"uint256"}],"outputs":[{"name":"id","type":"uint256","internalType":"uint256"},{"name":"title","type":"string","internalType":"string"},{"name":"description","type":"string","internalType":"string"},{"name":"createdAt","type":"uint256","internalType":"uint256"},{"name":"deadline","type":"uint256","internalType":"uint256"},{"name":"status","type":"bool","internalType":"bool"},{"name":"creator","type":"address","internalType":"address"},{"name":"stakeAmount","type":"uint256","internalType":"uint256"},{"name":"stakeReturned","type":"bool","internalType":"bool"}],"stateMutability":"view"},{"type":"function","name":"userTasks","inputs":[{"name":"","type":"address","internalType":"address"},{"name":"","type":"uint256","internalType":"uint256"}],"outputs":[{"name":"","type":"uint256","internalType":"uint256"}],"stateMutability":"view"},{"type":"event","name":"StakeLost","inputs":[{"name":"id","type":"uint256","indexed":false,"internalType":"uint256"},{"name":"stakeAmount","type":"uint256","indexed":false,"internalType":"uint256"}],"anonymous":false},{"type":"event","name":"TaskCompleted","inputs":[{"name":"id","type":"uint256","indexed":false,"internalType":"uint256"},{"name":"stakeReturned","type":"uint256","indexed":false,"internalType":"uint256"}],"anonymous":false},{"type":"event","name":"TaskCreated","inputs":[{"name":"id","type":"uint256","indexed":false,"internalType":"uint256"},{"name":"title","type":"string","indexed":false,"internalType":"string"},{"name":"creator","type":"address","indexed":false,"internalType":"address"},{"name":"stakeAmount","type":"uint256","indexed":false,"internalType":"uint256"},{"name":"deadline","type":"uint256","indexed":false,"internalType":"uint256"}],"anonymous":false},{"type":"event","name":"TaskStakeUpdated","inputs":[{"name":"returnedAmount","type":"uint256","indexed":false,"internalType":"uint256"},{"name":"pendingAmount","type":"uint256","indexed":false,"internalType":"uint256"}],"anonymous":false},{"type":"event","name":"TaskStatusUpdated","inputs":[{"name":"completedCount","type":"uint256","indexed":false,"internalType":"uint256"},{"name":"pendingCount","type":"uint256","indexed":false,"internalType":"uint256"}],"anonymous":false}],"bytecode":{"object":"0x60806040525f6002555f6003555f6004555f6005555f600655348015610023575f80fd5b50611f84806100315f395ff3fe6080604052600436106100fd575f3560e01c806395d5766011610094578063ba1066ed11610063578063ba1066ed1461034f578063c17a340e14610379578063e1e29558146103a3578063ea70b4af146103cb578063ebdd3c9c146103f5576100fd565b806395d5766014610283578063ab7e91fe146102bf578063b3c9e0fa146102fb578063b6cb58a514610325576100fd565b806341a4e30a116100d057806341a4e30a146101bd57806366873a55146101d95780636f9fb98a146102155780638d9776721461023f576100fd565b806308dbbb0314610101578063178216711461012b5780631d65e77e146101565780633f074db614610192575b5f80fd5b34801561010c575f80fd5b5061011561041f565b6040516101229190611173565b60405180910390f35b348015610136575f80fd5b5061013f61042a565b60405161014d92919061118c565b60405180910390f35b348015610161575f80fd5b5061017c600480360381019061017791906111ee565b61042f565b60405161018991906113d4565b60405180910390f35b34801561019d575f80fd5b506101a661062b565b6040516101b492919061118c565b60405180910390f35b6101d760048036038101906101d29190611520565b61063b565b005b3480156101e4575f80fd5b506101ff60048036038101906101fa91906115d2565b6108ff565b60405161020c9190611173565b60405180910390f35b348015610220575f80fd5b5061022961092a565b6040516102369190611173565b60405180910390f35b34801561024a575f80fd5b50610265600480360381019061026091906111ee565b610931565b60405161027a99989796959493929190611676565b60405180910390f35b34801561028e575f80fd5b506102a960048036038101906102a4919061170f565b610abe565b6040516102b691906117e2565b60405180910390f35b3480156102ca575f80fd5b506102e560048036038101906102e091906111ee565b610b51565b6040516102f29190611802565b60405180910390f35b348015610306575f80fd5b5061030f610d5f565b60405161031c9190611173565b60405180910390f35b348015610330575f80fd5b50610339610d65565b6040516103469190611173565b60405180910390f35b34801561035a575f80fd5b50610363610d6b565b6040516103709190611173565b60405180910390f35b348015610384575f80fd5b5061038d610d71565b60405161039a9190611173565b60405180910390f35b3480156103ae575f80fd5b506103c960048036038101906103c491906111ee565b610d7a565b005b3480156103d6575f80fd5b506103df6110f0565b6040516103ec9190611173565b60405180910390f35b348015610400575f80fd5b506104096110f6565b6040516104169190611173565b60405180910390f35b66038d7ea4c6800081565b5f8091565b6104376110fc565b5f808381526020019081526020015f20604051806101200160405290815f820154815260200160018201805461046c90611848565b80601f016020809104026020016040519081016040528092919081815260200182805461049890611848565b80156104e35780601f106104ba576101008083540402835291602001916104e3565b820191905f5260205f20905b8154815290600101906020018083116104c657829003601f168201915b505050505081526020016002820180546104fc90611848565b80601f016020809104026020016040519081016040528092919081815260200182805461052890611848565b80156105735780601f1061054a57610100808354040283529160200191610573565b820191905f5260205f20905b81548152906001019060200180831161055657829003601f168201915b505050505081526020016003820154815260200160048201548152602001600582015f9054906101000a900460ff161515151581526020016005820160019054906101000a900473ffffffffffffffffffffffffffffffffffffffff1673ffffffffffffffffffffffffffffffffffffffff1673ffffffffffffffffffffffffffffffffffffffff16815260200160068201548152602001600782015f9054906101000a900460ff1615151515815250509050919050565b5f80600354600454915091509091565b66038d7ea4c68000341015610685576040517f08c379a000000000000000000000000000000000000000000000000000000000815260040161067c906118c2565b60405180910390fd5b4281116106c7576040517f08c379a00000000000000000000000000000000000000000000000000000000081526004016106be9061192a565b60405180910390fd5b60025f8154809291906106d990611975565b919050555060405180610120016040528060025481526020018481526020018381526020014281526020018281526020015f151581526020013373ffffffffffffffffffffffffffffffffffffffff1681526020013481526020015f15158152505f8060025481526020019081526020015f205f820151815f015560208201518160010190816107699190611b59565b50604082015181600201908161077f9190611b59565b50606082015181600301556080820151816004015560a0820151816005015f6101000a81548160ff02191690831515021790555060c08201518160050160016101000a81548173ffffffffffffffffffffffffffffffffffffffff021916908373ffffffffffffffffffffffffffffffffffffffff16021790555060e08201518160060155610100820151816007015f6101000a81548160ff02191690831515021790555090505060045f81548092919061083990611975565b91905055503460055f82825461084f9190611c28565b9250508190555060015f3373ffffffffffffffffffffffffffffffffffffffff1673ffffffffffffffffffffffffffffffffffffffff1681526020019081526020015f20600254908060018154018082558091505060019003905f5260205f20015f90919091909150557f9eb5948b45d622ef560d2b8183be43f949b64ad8edb994e97673441b3c0690cc600254843334856040516108f2959493929190611c5b565b60405180910390a1505050565b6001602052815f5260405f208181548110610918575f80fd5b905f5260205f20015f91509150505481565b5f47905090565b5f602052805f5260405f205f91509050805f01549080600101805461095590611848565b80601f016020809104026020016040519081016040528092919081815260200182805461098190611848565b80156109cc5780601f106109a3576101008083540402835291602001916109cc565b820191905f5260205f20905b8154815290600101906020018083116109af57829003601f168201915b5050505050908060020180546109e190611848565b80601f0160208091040260200160405190810160405280929190818152602001828054610a0d90611848565b8015610a585780601f10610a2f57610100808354040283529160200191610a58565b820191905f5260205f20905b815481529060010190602001808311610a3b57829003601f168201915b505050505090806003015490806004015490806005015f9054906101000a900460ff16908060050160019054906101000a900473ffffffffffffffffffffffffffffffffffffffff1690806006015490806007015f9054906101000a900460ff16905089565b606060015f8373ffffffffffffffffffffffffffffffffffffffff1673ffffffffffffffffffffffffffffffffffffffff1681526020019081526020015f20805480602002602001604051908101604052809291908181526020018280548015610b4557602002820191905f5260205f20905b815481526020019060010190808311610b31575b50505050509050919050565b5f805f808481526020019081526020015f20604051806101200160405290815f8201548152602001600182018054610b8890611848565b80601f0160208091040260200160405190810160405280929190818152602001828054610bb490611848565b8015610bff5780601f10610bd657610100808354040283529160200191610bff565b820191905f5260205f20905b815481529060010190602001808311610be257829003601f168201915b50505050508152602001600282018054610c1890611848565b80601f0160208091040260200160405190810160405280929190818152602001828054610c4490611848565b8015610c8f5780601f10610c6657610100808354040283529160200191610c8f565b820191905f5260205f20905b815481529060010190602001808311610c7257829003601f168201915b505050505081526020016003820154815260200160048201548152602001600582015f9054906101000a900460ff161515151581526020016005820160019054906101000a900473ffffffffffffffffffffffffffffffffffffffff1673ffffffffffffffffffffffffffffffffffffffff1673ffffffffffffffffffffffffffffffffffffffff16815260200160068201548152602001600782015f9054906101000a900460ff16151515158152505090508060a00151158015610d575750806080015142115b915050919050565b60035481565b60025481565b60055481565b5f600254905090565b5f805f8381526020019081526020015f2090503373ffffffffffffffffffffffffffffffffffffffff168160050160019054906101000a900473ffffffffffffffffffffffffffffffffffffffff1673ffffffffffffffffffffffffffffffffffffffff1614610e1f576040517f08c379a0000000000000000000000000000000000000000000000000000000008152600401610e1690611cfd565b60405180910390fd5b806005015f9054906101000a900460ff1615610e70576040517f08c379a0000000000000000000000000000000000000000000000000000000008152600401610e6790611d65565b60405180910390fd5b806007015f9054906101000a900460ff1615610ec1576040517f08c379a0000000000000000000000000000000000000000000000000000000008152600401610eb890611dcd565b60405180910390fd5b6001816005015f6101000a81548160ff0219169083151502179055506001816007015f6101000a81548160ff02191690831515021790555080600401544211611075575f8160050160019054906101000a900473ffffffffffffffffffffffffffffffffffffffff1673ffffffffffffffffffffffffffffffffffffffff168260060154604051610f5190611e18565b5f6040518083038185875af1925050503d805f8114610f8b576040519150601f19603f3d011682016040523d82523d5f602084013e610f90565b606091505b5050905080610fd4576040517f08c379a0000000000000000000000000000000000000000000000000000000008152600401610fcb90611e76565b60405180910390fd5b60035f815480929190610fe690611975565b919050555060045f815480929190610ffd90611e94565b919050555081600601546006546110149190611c28565b600681905550816006015460055461102c9190611ebb565b6005819055507ff9c405f91e34dcd1dc136cf6992ada4a8c24a2803e0fab7546364c64dac7ba2b83836006015460405161106792919061118c565b60405180910390a1506110ec565b7ff9c405f91e34dcd1dc136cf6992ada4a8c24a2803e0fab7546364c64dac7ba2b825f6040516110a6929190611f27565b60405180910390a17fa9898ba252935fecb197d0a78b42a99811306bb4e657863c322889be3ffbcd1c8282600601546040516110e392919061118c565b60405180910390a15b5050565b60045481565b60065481565b6040518061012001604052805f815260200160608152602001606081526020015f81526020015f81526020015f151581526020015f73ffffffffffffffffffffffffffffffffffffffff1681526020015f81526020015f151581525090565b5f819050919050565b61116d8161115b565b82525050565b5f6020820190506111865f830184611164565b92915050565b5f60408201905061119f5f830185611164565b6111ac6020830184611164565b9392505050565b5f604051905090565b5f80fd5b5f80fd5b6111cd8161115b565b81146111d7575f80fd5b50565b5f813590506111e8816111c4565b92915050565b5f60208284031215611203576112026111bc565b5b5f611210848285016111da565b91505092915050565b6112228161115b565b82525050565b5f81519050919050565b5f82825260208201905092915050565b5f5b8381101561125f578082015181840152602081019050611244565b5f8484015250505050565b5f601f19601f8301169050919050565b5f61128482611228565b61128e8185611232565b935061129e818560208601611242565b6112a78161126a565b840191505092915050565b5f8115159050919050565b6112c6816112b2565b82525050565b5f73ffffffffffffffffffffffffffffffffffffffff82169050919050565b5f6112f5826112cc565b9050919050565b611305816112eb565b82525050565b5f61012083015f8301516113215f860182611219565b5060208301518482036020860152611339828261127a565b91505060408301518482036040860152611353828261127a565b91505060608301516113686060860182611219565b50608083015161137b6080860182611219565b5060a083015161138e60a08601826112bd565b5060c08301516113a160c08601826112fc565b5060e08301516113b460e0860182611219565b506101008301516113c96101008601826112bd565b508091505092915050565b5f6020820190508181035f8301526113ec818461130b565b905092915050565b5f80fd5b5f80fd5b7f4e487b71000000000000000000000000000000000000000000000000000000005f52604160045260245ffd5b6114328261126a565b810181811067ffffffffffffffff82111715611451576114506113fc565b5b80604052505050565b5f6114636111b3565b905061146f8282611429565b919050565b5f67ffffffffffffffff82111561148e5761148d6113fc565b5b6114978261126a565b9050602081019050919050565b828183375f83830152505050565b5f6114c46114bf84611474565b61145a565b9050828152602081018484840111156114e0576114df6113f8565b5b6114eb8482856114a4565b509392505050565b5f82601f830112611507576115066113f4565b5b81356115178482602086016114b2565b91505092915050565b5f805f60608486031215611537576115366111bc565b5b5f84013567ffffffffffffffff811115611554576115536111c0565b5b611560868287016114f3565b935050602084013567ffffffffffffffff811115611581576115806111c0565b5b61158d868287016114f3565b925050604061159e868287016111da565b9150509250925092565b6115b1816112eb565b81146115bb575f80fd5b50565b5f813590506115cc816115a8565b92915050565b5f80604083850312156115e8576115e76111bc565b5b5f6115f5858286016115be565b9250506020611606858286016111da565b9150509250929050565b5f82825260208201905092915050565b5f61162a82611228565b6116348185611610565b9350611644818560208601611242565b61164d8161126a565b840191505092915050565b611661816112b2565b82525050565b611670816112eb565b82525050565b5f6101208201905061168a5f83018c611164565b818103602083015261169c818b611620565b905081810360408301526116b0818a611620565b90506116bf6060830189611164565b6116cc6080830188611164565b6116d960a0830187611658565b6116e660c0830186611667565b6116f360e0830185611164565b611701610100830184611658565b9a9950505050505050505050565b5f60208284031215611724576117236111bc565b5b5f611731848285016115be565b91505092915050565b5f81519050919050565b5f82825260208201905092915050565b5f819050602082019050919050565b5f61176e8383611219565b60208301905092915050565b5f602082019050919050565b5f6117908261173a565b61179a8185611744565b93506117a583611754565b805f5b838110156117d55781516117bc8882611763565b97506117c78361177a565b9250506001810190506117a8565b5085935050505092915050565b5f6020820190508181035f8301526117fa8184611786565b905092915050565b5f6020820190506118155f830184611658565b92915050565b7f4e487b71000000000000000000000000000000000000000000000000000000005f52602260045260245ffd5b5f600282049050600182168061185f57607f821691505b6020821081036118725761187161181b565b5b50919050565b7f56616c6f72206d696e696d6f206520302e3030303030303031206574686572005f82015250565b5f6118ac601f83611610565b91506118b782611878565b602082019050919050565b5f6020820190508181035f8301526118d9816118a0565b9050919050565b7f5072617a6f206465766520736572206d61696f72207175652061676f726100005f82015250565b5f611914601e83611610565b915061191f826118e0565b602082019050919050565b5f6020820190508181035f83015261194181611908565b9050919050565b7f4e487b71000000000000000000000000000000000000000000000000000000005f52601160045260245ffd5b5f61197f8261115b565b91507fffffffffffffffffffffffffffffffffffffffffffffffffffffffffffffffff82036119b1576119b0611948565b5b600182019050919050565b5f819050815f5260205f209050919050565b5f6020601f8301049050919050565b5f82821b905092915050565b5f60088302611a187fffffffffffffffffffffffffffffffffffffffffffffffffffffffffffffffff826119dd565b611a2286836119dd565b95508019841693508086168417925050509392505050565b5f819050919050565b5f611a5d611a58611a538461115b565b611a3a565b61115b565b9050919050565b5f819050919050565b611a7683611a43565b611a8a611a8282611a64565b8484546119e9565b825550505050565b5f90565b611a9e611a92565b611aa9818484611a6d565b505050565b5b81811015611acc57611ac15f82611a96565b600181019050611aaf565b5050565b601f821115611b1157611ae2816119bc565b611aeb846119ce565b81016020851015611afa578190505b611b0e611b06856119ce565b830182611aae565b50505b505050565b5f82821c905092915050565b5f611b315f1984600802611b16565b1980831691505092915050565b5f611b498383611b22565b9150826002028217905092915050565b611b6282611228565b67ffffffffffffffff811115611b7b57611b7a6113fc565b5b611b858254611848565b611b90828285611ad0565b5f60209050601f831160018114611bc1575f8415611baf578287015190505b611bb98582611b3e565b865550611c20565b601f198416611bcf866119bc565b5f5b82811015611bf657848901518255600182019150602085019450602081019050611bd1565b86831015611c135784890151611c0f601f891682611b22565b8355505b6001600288020188555050505b505050505050565b5f611c328261115b565b9150611c3d8361115b565b9250828201905080821115611c5557611c54611948565b5b92915050565b5f60a082019050611c6e5f830188611164565b8181036020830152611c808187611620565b9050611c8f6040830186611667565b611c9c6060830185611164565b611ca96080830184611164565b9695505050505050565b7f4170656e6173206f2043726961646f7220706f646520636f6d706c65746172005f82015250565b5f611ce7601f83611610565b9150611cf282611cb3565b602082019050919050565b5f6020820190508181035f830152611d1481611cdb565b9050919050565b7f546172656661206a6120636f6e636c75696461000000000000000000000000005f82015250565b5f611d4f601383611610565b9150611d5a82611d1b565b602082019050919050565b5f6020820190508181035f830152611d7c81611d43565b9050919050565b7f5374616b65206a6120666f692070726f636573736461000000000000000000005f82015250565b5f611db7601683611610565b9150611dc282611d83565b602082019050919050565b5f6020820190508181035f830152611de481611dab565b9050919050565b5f81905092915050565b50565b5f611e035f83611deb565b9150611e0e82611df5565b5f82019050919050565b5f611e2282611df8565b9150819050919050565b7f46616c686120616f206465766f6c766572207374616b650000000000000000005f82015250565b5f611e60601783611610565b9150611e6b82611e2c565b602082019050919050565b5f6020820190508181035f830152611e8d81611e54565b9050919050565b5f611e9e8261115b565b91505f8203611eb057611eaf611948565b5b600182039050919050565b5f611ec58261115b565b9150611ed08361115b565b9250828203905081811115611ee857611ee7611948565b5b92915050565b5f819050919050565b5f611f11611f0c611f0784611eee565b611a3a565b61115b565b9050919050565b611f2181611ef7565b82525050565b5f604082019050611f3a5f830185611164565b611f476020830184611f18565b939250505056fea2646970667358221220808419671178e7fd41c8eed4f0ecea9d222101bd43a70fac1c644a5dcbd3eec664736f6c63430008180033","linkReferences":{}},"methodIdentifiers":{"MINIMUM_STAKE()":"08dbbb03","completeTask(uint256)":"e1e29558","completedCount()":"b3c9e0fa","createTask(string,string,uint256)":"41a4e30a","getContractBalance()":"6f9fb98a","getTask(uint256)":"1d65e77e","getTaskCount()":"c17a340e","getTaskReturnedAmount()":"17821671","getTaskStatusCount()":"3f074db6","getUserTasks(address)":"95d57660","isTaskOverdue(uint256)":"ab7e91fe","pendingAmount()":"ba1066ed","pendingCount()":"ea70b4af","returnedAmount()":"ebdd3c9c","taskCount()":"b6cb58a5","tasks(uint256)":"8d977672","userTasks(address,uint256)":"66873a55"},"id":21}